:020000040800F2
:100000000000012041DC0508C5DC0508CD560208CA
:10001000C5DC0508C5DC0508C5DC050800000000D6
:10002000000000000000000000000000C5DC050822
:10003000C5DC050800000000C5DC05089F48010874
:10004000C5DC0508C5DC0508C5DC0508C5DC0508F8
:10005000C5DC0508C5DC05088FFC000893FC00081A
:1000600097FC00089BFC00089FFC0008FDB50008F9
:1000700011B6000825B6000839B600084DB60008CC
:1000800061B6000875B60008C5DC0508C5DC0508C2
:10009000C5DC0508C5DC0508C5DC0508A3FC0008AF
:1000A00081BE0008A5BD000895BE000891BD0008EE
:1000B000CDBD0008E1BD0008F5BD000869AC000831
:1000C0005DAC000881AC000875AC0008C5DC050813
:1000D000C5DC05087DC0000889C00008C5DC05082E
:1000E000A7FC0008C5DC0508C5DC0508A9BE00089A
:1000F00031BE000859BE00081DBE000889B60008C0
:10010000C5DC0508C5DC050809BE0008C5DC050816
:1001100095C00008A1C00008C5DC050859CE00083C
:100120009DB60008B1B60008C5B60008D9B60008EB
:10013000EDB6000800000000000000000000000014
:100140000000000000000000000000001DC20008C8
:1001500001B7000815B7000829B70008C5DC050875
:1001600099AC00088DAC0008C5DC0508C5DC0508A5
:10017000C5DC0508C5DC0508000000000000000023
:10018000C5DC0508C5DC0508C5DC0508C5DC0508B7
:10019000C5DC0508C5DC050800000000C5DC050855
:1001A000000000000000000000000000C5DC0508A1
:1001B000C5DC0508C5DC05080000000000000000E3
:1001C000000000000000000000000000000000002F
:1001D000000000000000000000000000C5DC050871
:0801E00060CD050001000000E4
:1001E8008C8B02200201000002001F00AC8B022051
:1001F8000207000002001F00CC8B0220020800004A
:1002080002001F00EC8B0220010D000000017600A7
:100218000C8C0220010E0100000177002C8C0220BA
:1002280001130000000176004C8C0220011500002B
:1002380000011E006C8C0220011B000000010D0053
:100248008C8C0220011C000000012C00AC8C0220C8
:100258000116000000010C00CC8C022001170000E0
:1002680000010C00EC8C0220011D000000010E00B2
:100278000C8D0220011E000000011E002C8D0220A2
:100288000118000000010C004C8D0220011900002B
:1002980000010E006C8D0220011A000000010C0004
:1002A8008C8D02200120000000010C00AC8D022082
:1002B8000121000000010C00CC8D0220012A010060
:1002C80000011800EC8D0220012200000001480006
:1002D8000C8E022001230000000149002C8E022010
:1002E8000124000000014A004C8E02200125000074
:1002F80000014B006C8E02200126000000014C001A
:100308008C8E02200127000000014D00AC8E0220D7
:100318000128000000014E00CC8E022001290000B7
:1003280000014F00EC8E0220012D00000001290081
:100338000C8F0220012E0100000129002C8F0220C1
:10034800012F0100000170004C8F022001310000D4
:10035800000131006C8F02200130010000015200C1
:100368008C8F02200132010000012800AC8F02208E
:100378000133000000017600CC8F02200134010017
:1003880000012800EC8F0220022B050000012C0040
:100398000C90022002350000000229002C90022057
:1003A8000137000000013C004C900220013A000097
:0403B8000001200020
:10800000836B1A6C12F0500F21D11A6C42F400727B
:108010001A641A68916811F0405F1BD19969C9B957
:10802000D16A11F4700F02D09168490512D45168D9
:1080300021F0200151601A6C22F480721A641A6CCB
:10804000D20407D41A6C42F001021A6470479B6B89
:10805000DB6C184770477047836B40221A645A6C78
:1080600042F004025A64704790F83530022B03D076
:1080700080234365012070470268052380F835306E
:108080000020136823F00103136070470268436BFC
:108090009169126803B118477047836B19684A6881
:1080A00042F400424A600022996B0A65D96B0A6566
:1080B00093F84120602A02D1202283F841207047A2
:1080C000F0B5059D06680C4FB46931EA04040CBF95
:1080D00001240024944201D000200CE03C68641B81
:1080E0009C42F1D9202380F84130002380F84230AF
:1080F00080F840300320F0BD3023012030B5046803
:10810000039D60682B4320F07F700B4320F45930AF
:1081100043EA024320F47F7020F0030003436360CE
:1081200030BD836B0022A3F85A20A3F85220704779
:10813000436ADA0710B506D50168846A4A6822F4F2
:10814000003222434A609C0706D50168C46A4A6827
:1081500022F4803222434A60590706D50168046B35
:108160004A6822F4802222434A601A0706D5016831
:10817000446B4A6822F4004222434A60DC0606D57A
:108180000168846B8A6822F4805222438A609906CF
:1081900006D50168C46B8A6822F4005222438A60C3
:1081A0005A0610D50168046C4A68B4F5801F22F4A1
:1081B000801242EA04024A6005D14A68446C22F403
:1081C000C00222434A601B0606D50268816C5368D0
:1081D00023F400230B43536010BD0F4B984215D07E
:1081E000A3F57843984213D003F58063984211D0E9
:1081F00003F57843984208D10323084A142101FB70
:108200000322138A01339BB2138270470023F4E7E1
:108210000123F2E70223F0E70030014000000120D3
:10822000D0E907239A423CBFC1685218D01A704760
:10823000D0E9092300699A4238BF12180138D31ACD
:10824000C01A7047D0E90902131A584258417047C2
:108250000246036A4169C85C0133D1688B4228BF7A
:10826000002313627047436A8269D154436A0269EA
:108270000133934228BF0023426B4362136843F0EB
:10828000800313607047436BD86910F0100002D070
:10829000102201201A62704701F00101014B83F89E
:1082A0005010704700000120704770477047012050
:1082B0007047034B58689B68C01AC0F30B007047A7
:1082C00030230120054B93F80832032B04D1044BD3
:1082D00093F85000C0B2704700207047302301204F
:1082E00000000120012380F84930704708B5D0F81C
:1082F000143233B11B689847003818BF0120400082
:1083000008BD0220FCE7D0F818321BB10020C3F8EA
:108310001402704702207047D0F8302201F00F019C
:10832000D0F8183210B51C2404FB012203F50371A8
:10833000B2F81022C3F80C22D0F81C22D3F80402A1
:10834000D2689047002010BDD0F81C3210B56BB138
:10835000D0F8184294F80002FF2807D09B68214605
:1083600094F801229847FF2384F80032002010BDC2
:1083700043230380004870475400012043230380B7
:10838000004870479800012043230380004870474D
:10839000DC0001200A2303800048704720010120EF
:1083A00020230380004870472C01012020230380F4
:1083B000004870474C01012020230380004870478B
:1083C0006C0101200A230380004870478C010120C2
:1083D000042301480B80704798010120002370B5E9
:1083E0004D1C1E46040FB0F1204F4FEA001034BF61
:1083F0003034373401F8134005F813600133DCB230
:10840000A242EFD870BD1A2310B50B80094BD3F8E8
:10841000100AD3F8182A80180AD0D3F8144A082270
:108420000549FFF7DBFF042210312046FFF7D6FF96
:10843000024810BD0070F01F9E0101209C01012028
:1084400000207047212808B50B461BD022282BD0CE
:10845000202815D1A1B1072A12D11879194A096823
:1084600082F8BC0158799B79C2F8B81182F8BE3104
:10847000154B82F8BD01D3F840320BB1002098476C
:10848000002008BD0029FBD0072AF9D10D4AD2F8F7
:10849000B811196092F8BC11197192F8BD11597197
:1084A00092F8BE219A71EBE70029E9D0022AE7D1C0
:1084B0000548D0F84422002AE2D00988D0F84802C2
:1084C0009047DDE70000012030230120EFF3118207
:1084D000702383F312880849D2B2D1E9933182F331
:1084E00011888B4203F1FF338CBF002001205B1AFF
:1084F00003EB0030704700BF30230120E6E74FF464
:10850000007300201380024BD3F860320B60704779
:108510003023012000207047012070470120704760
:108520000020704730B41D691446954209D30A46AD
:1085300021448D42996938BF2A1B214430BC5AF02E
:1085400017B930BC704738B50025044680F8425052
:1085500090F84130292B0AD12823012180F841309D
:108560002123036354F03FFB84F8405038BD90F85A
:1085700041302A2BFAD12823022180F841302223CE
:108580000363EFE7154B202210B5C36200230446B6
:108590000363436380F8412080F842304B0711D5D4
:1085A00003685A6A436A591C41621A70038D4BB1C1
:1085B000013B0385438D013B9BB24385436C43F0F4
:1085C000040343640721204654F00DFB2368102266
:1085D000DA61002384F8403010BD00BF0000FFFFC7
:1085E00038B5304A0023044680F84230C2624385E1
:1085F000436C0B43436490F84130282B07D090F82C
:108600004130292B03D090F841302A2B21D103216E
:10861000204654F0E8FA282384F8413000232363ED
:10862000214B6363236819681A6811F480411DD0D7
:1086300022F48042A16B1A6008461C4B0B65002394
:1086400084F84030FFF710FD58B30846BDE83840C5
:1086500023E5072154F0C7FA94F84130602B02D08B
:10866000202384F8413000232363DAE712F4004228
:108670000ED01A68E56B22F4004228461A600B4BB4
:108680002B6584F84010FFF7EFFC50B12846DDE77A
:1086900094F84130602B02D1202384F8413084F8D3
:1086A000402038BD0000FFFFCDA100089B800008DE
:1086B000036899691A6810B4CC0508D5140606D564
:1086C000446C44F0010444644FF48074DC614C0554
:1086D00008D5140606D5446C44F0080444644FF4ED
:1086E0008064DC61890508D5120606D5426C42F02B
:1086F000020242644FF40072DA61436C13F00B0F14
:1087000003D0416C5DF8044B6AE75DF8044B704799
:1087100003682DE9F04F13F0010885B000F0BE8129
:10872000B64A916821F400019160C16A94680C43D3
:10873000B1FA81F14909946013F4002500F0B08189
:10874000AE4E426BD6F88C40B2F5801F24F4401434
:1087500044EA0204C6F88C4000F0A481B2FA82F226
:10876000520913F48014019412D0DFF890C2876B81
:10877000DCF88C40B7F5800F24F4400444EA070489
:10878000CCF88C4000F09181002F08BF42F001022C
:108790009C0638D5994CDFF86CC2276C47F080579F
:1087A0002764246C04F080540394039C944C276841
:1087B00047F480772760DCF800E02768FF0540F188
:1087C00076818E4C876AD4F870E007F440791EF405
:1087D000407E40F07781B9F5407F884C40F09E8123
:1087E000D4F808C027F0704E2CF4F81C2EF4407E0C
:1087F0004CEA0E0CC4F808C0C7F30B07D4F870C0DD
:1088000047EA0C072767DE060CD57C4FD7F88C406B
:1088100024F08074C7F88C40D7F88C40066B344342
:10882000C7F88C405C0408D5744FC66DD7F89040EB
:1088300024F440343443C7F890401F0408D56F4FE8
:10884000066ED7F8904024F440243443C7F8904093
:10885000DE0308D5694F466ED7F8904024F44014E3
:108860003443C7F890405C0608D5644FC66BD7F810
:10887000904024F003043443C7F890401F0608D505
:108880005E4F066CD7F8904024F00C043443C7F8D0
:108890009040DE0508D5594F466CD7F8904024F03B
:1088A00030043443C7F890409C0508D5534F866C7C
:1088B000D7F8904024F0C0043443C7F890405F05D7
:1088C00008D54E4FC66CD7F8904024F4407434431A
:1088D000C7F890401E0508D5484F066DD7F8904060
:1088E00024F440643443C7F89040DC0408D5434F77
:1088F000466DD7F8904024F440543443C7F8904074
:108900009F0408D53D4F866DD7F8904024F440442D
:108910003443C7F8904013F4001410D0DFF8DCE0C3
:10892000D0F874C0DEF89070BCF1006F08BF42F060
:10893000010227F0006747EA0C07CEF890705E034B
:108940000AD5DFF8B8E0DEF8907027F0407CC76EFB
:108950004CEA0707CEF890701F020AD5DFF89CE0BA
:10896000DEF8907027F0805C876F4CEA0707CEF83E
:1089700090705E0140F1D780DFF880E0DEF8907003
:1089800027F0005CC76F4CEA0707CEF8907000290B
:1089900040F0CE80012A7FD1184B1A491A6822F084
:1089A00080521A600F681A68960000F177810DB145
:1089B000436B23B1019B002B39D0836BBBBB0F4EA4
:1089C0004FF44035D6F8882095FAA5FE47F6C077D3
:1089D000BEFA8EFE97FAA7F7B7FA87F795FAA5F5CC
:1089E0004FF0706CB5FA85F59CFAACFC0369BCFAE3
:1089F0008CFC02F44032BB40476905E0003802407D
:108A0000007000403023012022FA0EF207FA0CF722
:108A1000AA403B431343C6F88830D6F88C30026A2C
:108A200023F4F853013A43EA0223C6F88C304CB3DE
:108A3000436FB3F1006F25D19E4D4FF07063D5F8B1
:108A4000882093FAA3F747F6C076B7FA87F796FA25
:108A5000A6F64FF44034B6FA86F694FAA4F4B4FAC3
:108A600084F493FAA3F3B3FA83FC02F0706203690F
:108A70008069FA40B340A04002FA0CF2034313436A
:108A8000C5F888308B4B1A6842F080521A6008682B
:108A90001A68920040F10881002010E041464BE640
:108AA0002A465EE6002201215BE6012170E6DCF841
:108AB0000070A7EB0E07642F7FF67FAE032005B092
:108AC000BDE8F08FCE453FF486AED4F870E0D4F820
:108AD00070A02EF4407E4AF4803AC4F870A0D4F816
:108AE00070A02AF4803AC4F870A0C4F870E0D4F8FA
:108AF00070E01EF0010F3FF46EAEDCF800A041F212
:108B0000883BD4F870E01EF0020F7FF464AEDCF80E
:108B100000E0AEEB0A0EDE45F3D9CFE7D4F808C08B
:108B20002CF4F81C66E619B9B3F1007F7FF432AF7C
:108B3000DFF880E1DFF880C1DEF8001021F080610D
:108B4000CEF80010DCF80070DEF80010090100F12A
:108B50009E80B8F1000F2AD0C16A41BBDEF8847054
:108B60004FF0706898FAA8F947F6C071B9FA89F918
:108B700091FAA1F1B1FA81F198FAA8F84FF0E04A20
:108B8000B8FA88F89AFAAAFA4668BAFA8AFA07F09E
:108B9000706706FA01F1866827FA09F706FA0AFAF9
:108BA00007FA08F741EA0A013943CEF884101DB1EB
:108BB000416BB1F5801F05D00199B9B3816BB1F557
:108BC000800F33D1DFF8ECE04FF0E048DEF884703E
:108BD00098FAA8F947F6C071B9FA89F991FAA1F1A2
:108BE0004FF0706AB1FA81F19AFAAAFABAFA8AFADF
:108BF00098FAA8F8466807F0E047B8FA88F806FA45
:108C000001F1C66827FA09F706FA0AFA07FA08F71F
:108C100041EA0A013943CEF88410DEF88C70C1694C
:108C200027F01F0701393943CEF88C109E011DD55E
:108C300047F6C07797FAA7F74FF07061B7FA87F752
:108C400091FAA1F14FF0E04EB1FA81F19EFAAEFE39
:108C50004368BEFA8EFEBB40C7688F4081683B43C5
:108C600001FA0EF10B431349C1F88430114B196816
:108C700041F080611960DCF80070196809013FF566
:108C800089AEDCF80010C91B6429F6D916E7DCF8B8
:108C90000010C91B64297FF657AF0FE70A68D21B83
:108CA000642A7FF680AE09E70A68121A642A7FF602
:108CB000EFAE03E700380240302301202DE9F341F5
:108CC00006690546C3680C464FF000481E4016B9B9
:108CD00002B0BDE8F081B6FA86F328FA03F21B3B36
:108CE000D24316402A61002C40D0042BEFD8DFE895
:108CF00003F039332D2603002369EF6A2BB19B68FB
:108D00001BB1B9B204F108009847A36A2BB19B6864
:108D10001BB1B9B204F120009847236C2BB19B68BA
:108D20001BB1B9B204F138009847A36D002BCED027
:108D30009B68002BCBD0B9B204F1500004E023694A
:108D400004F10800696B5B689847C0E7A36A04F107
:108D50002000A96B5B68F7E7236C04F13800E96B2E
:108D60005B68F1E7A36D296C5B68E5E7042B06D827
:108D7000DFE803F00D0B09070300EB6A0193019B89
:108D8000A5E76B6BFAE7AB6BF8E7EB6BF6E72B6CE1
:108D9000F4E7436BDA69910670B5044613D5586A57
:108DA000E36AC0B2002B49D0216B9847636B1A6805
:108DB00022F480721A609A6822F001029A609A691D
:108DC00042F008029A61DA69D20701D501221A62DB
:108DD000DA69960701D502221A62DA69550701D5C8
:108DE00004221A62DA69100701D508221A62DA69C8
:108DF00011060ED594F89D20212A0AD0D4E9091233
:108E00008A4227D10022A4F886201A6822F0800224
:108E10001A60DA69520640F19280DA6904F134008E
:108E2000196816079D6821D1960640F189808D0644
:108E300040F18680BDE8704053F0B0BCE3696269E0
:108E4000D054E369E2680133B3FBF2F102FB113362
:108E5000E361ABE7A169895C0132C9B2996221691A
:108E6000B2FBF1F001FB1022A262D2E705F001058E
:108E700001F490762E4363D0D60709D5CE0507D5E9
:108E800001261E62D4F8A06046F00106C4F8A06076
:108E9000960708D53DB102261E62D4F8A06046F0C0
:108EA0000406C4F8A060560708D53DB104261E622A
:108EB000D4F8A06046F00206C4F8A06016070AD5F0
:108EC00001F020062E4306D008251D62D4F8A030FC
:108ED0002B43C4F8A030D4F8A03083B3960603D552
:108EE0008D0601D553F05AFCD4F8A020636B11070E
:108EF00003D49A6812F040021FD01A6822F49072CC
:108F00001A609A6822F001029A60202284F89E205A
:108F10009A68520613D59A68D4F8981022F0400245
:108F20009A6061B1254B08460B65FFF79DF830B19B
:108F30000846BDE87040FFF7F4B8C4F8A02070BD43
:108F400016062ED50D062CD594F89D20212AF6D193
:108F5000B4F8862092B242B91A6822F080021A60F0
:108F60001A6842F040021A60E9E7E16BD4F8802009
:108F7000B1F5805F0FD1616C69B932F8021BC1F3A2
:108F800008019962C4F88020B4F88630013B9BB296
:108F9000A4F88630D3E7511CC4F8801012789A6286
:108FA000F2E75006CBD54A06C9D51A6822F040022E
:108FB0001A60202384F89D30C1E700BF2381000898
:108FC000144B10B5596898689A68091AC1F30B01D7
:108FD0000029F7D0B2F5805F0F4919BF8C5C0132D0
:108FE00001220C7818BFC2F30B029A6093F890220A
:108FF0006AB19A68596802F6FF72521AC2F30B02FC
:10900000802A04D9002283F8902253F02BF82046BE
:1090100010BD00BF302301204064012037B5264B2E
:109020000025264C264AC4F8943242F20F7304F508
:109030002570C4F8A452C4F8A032224BC4F89C5244
:10904000D3F8C031B3FBF2F3013BC4F8983253F0CC
:109050004FFD1D4B062137201A6C42F020021A6486
:109060001B6C03F020030193019B50F0C9FA174BCE
:109070004FF400025A60D4F89432DA6842F00102E8
:10908000DA601A6842F001021A60D4F82432104AF9
:10909000C3F81052C3F8082204F535726560C3F8AE
:1090A0000422A56084F89052C4E9905552F0DAFF8A
:1090B000284603B030BD00BF00140040302301201B
:1090C00080841E00000001200038024000E100E022
:1090D000405401202DE9F843194E07460D68746885
:1090E000DFF86090C4F5805804EB0900454515D8B9
:1090F0002A4625443946C5F30B0559F039FB7560FE
:10910000B36803F6FF735B1BC3F30B03802B13D809
:109110000123022086F89032BDE8F883A4F580543C
:1091200042463946254459F023FB07EB08014846DF
:109130002A4659F01DFBE2E752F094FF0020EBE7CE
:10914000302301204064012090F84820531C024441
:10915000DBB280F8483082F8341090F849200AB128
:10916000132B01D953F073B87047002280F84920BF
:1091700053F06DB838B50446D0F83002237C93BB69
:109180004FF400730222812152F0E2FF4FF400738A
:1091900002220121D4F8300252F0DAFF0823032220
:1091A0008221D4F8300252F0D3FF4FF4077059F007
:1091B000F9FA0546C4F81802F0B1D4F81C321B685D
:1091C00098470023D5F80422C5F81432C5F81832A0
:1091D000237CD4F830026BB94FF40073012152F0B4
:1091E0001DFF002038BD40230222812152F0B0FF34
:1091F0004023CDE74023F1E70120F3E710B5044613
:109200008121D0F8300252F062FF0121D4F83002FF
:1092100052F05DFF8221D4F8300252F058FFD4F8AA
:10922000183253B1D4F81C325B689847D4F818024E
:1092300059F0C0FA0023C4F81832002010BD10B550
:1092400004460121D0F8300252F041FF8121D4F8C8
:10925000300252F03CFFD4F8280259F0ABFA00205B
:10926000C4F8280210BD70B50B7804460D4613F003
:1092700060022AD0202A21D1CA88487802B31B066E
:10928000D4F818620AD5D4F81C3231469B68984746
:10929000EA883146204652F0CFFF0FE0032386F8DC
:1092A000012286F800020021C4F8F4311346D4F8F4
:1092B0003002C4E94222324652F0B0FE002070BDB6
:1092C000D4F81C329B689847F8E74B780A2BF5D105
:1092D00001220149DFE700BF4426012070B50446A2
:1092E000D0F83002237C93BB4FF40073022201219B
:1092F00052F02EFF4FF4007302228121D4F8300285
:1093000052F026FF4FF41B7059F04CFA0646C4F891
:10931000280218B30025D4F82C320581A0F85C523D
:1093200028461B6898470121D4F8300253F0F1F920
:109330008121D4F8300253F0ECF9D4F830021F2325
:1093400006F50372012152F069FE284670BD4023E4
:109350000222012152F0FCFE4023CDE70120F5E777
:1093600070B5D0F82852044695F818324BB9D5F8A4
:10937000143233B16B7A23B90121D0F8300252F0A4
:10938000B3FF8121D4F8300252F0AEFF6B7A022B8A
:1093900009D105F50372D4F830021F230121BDE87D
:1093A000704052F03BBE70BD70B50E4B0446D0F815
:1093B0002852C5F82C32002385F8381205F50B72B7
:1093C0002B7281210D23D0F8300252F05FFE05F59B
:1093D0000372D4F830021F230121BDE8704052F01F
:1093E0001DBE00BF555342532DE9F0410B78044692
:1093F000D0F8285213F0600234D0202A19D14A78CC
:10940000FE2A05D0FF2A19D052F0ACFF022011E04D
:109410004A888AB9CE88012E0ED11A060CD5D0F80A
:109420002C329B699847324628602946204652F0E4
:1094300003FF0020BDE8F0812046E5E74A88002AC6
:10944000FAD1CA88002AF7D11B06F5D44FF48073ED
:1094500005F5037201212B811F23D0F8300252F051
:10946000DDFDE6E74E780A2E28D00B2E29D0012EFE
:10947000DFD18F8891F80480D0F830027FB2414666
:1094800053F047F9D4F83002414652F020FE002F45
:10949000237CD4F8300219DAB3B94FF400730222F6
:1094A000812152F055FE6B7A022B17D18121D4F81D
:1094B000300252F019FF00236B72BAE70122291D16
:1094C000B5E78B786B60B4E74023E8E723B94FF446
:1094D000007302223146E4E74023FAE7002FA8DABE
:1094E000012BA6D001212046FFF75EFFA1E72DE961
:1094F000F743137804460E4690462F2B3ED8192B7F
:1095000009D8032B73D0122B00F09D80002B4DD077
:1095100020220521E0E01A3B152BF9D801A252F8D0
:1095200023F000BF91960008879600081195000867
:1095300011950008879600081195000811950008FC
:109540001195000811950008B796000811950008BC
:109550000797000811950008119500084197000829
:10956000119500082D980008119500081195000824
:109570001195000811950008479900085A2BC7D18A
:10958000D0F828520823C14A6B81D2F80730EB602B
:10959000D2F80B302B61D0F82C320846DB689847A4
:1095A00018B3EB7B63F07F03EB731EE0D0F8285217
:1095B000D5F814324BB120220521284652F021FE65
:1095C0004FF0FF3003B0BDE8F083D0F82C320846EE
:1095D0009B68984740B13A220221D4F8280252F001
:1095E00010FE05232B72EBE768810020EAE7D0F834
:1095F00028421122002104F10D0059F0BAF970231C
:1096000094F85D2223730C23E37494F85C329A423D
:1096100011D004EBC302013392F83C12DBB2A17308
:10962000042B92F8411208BF0023217692F84022C1
:1096300084F85C3262761223638198F80430122B2E
:10964000D3D86381D1E798F80130D0F82822DB071E
:1096500016D4D0F82C3201EBC10698F80410DB695F
:1096600003EB8606337905338B4228BF0B465381C3
:10967000002BBAD0013B9BB2F05CD1180873F7E71E
:109680000723824EF3E7D0F8283200225A81ACE754
:10969000D0F8285208236B810023EB602B61D0F8AF
:1096A0002C320846DB68984700289ED0AB7B63F0DD
:1096B0007F03AB7399E7D0F8285200230DF1020223
:1096C00001A9EB602B616B61D0F82C3230465B68EE
:1096D000984720B13A220221D4F828026EE70823E5
:1096E000EB73019B013B1A0EEB742A741A0C6A741B
:1096F0001A0A0223AA74AB82BDF802305BBAEB826D
:109700000C236B815EE7D0E98A5330465B6805F233
:109710005E2205F5187198470028DBD1D5F8603234
:109720002882013B1A0EEB732A731A0C6A731A0A09
:10973000B5F85E32AA735BBA6B8208236B8154E77B
:10974000D0F828723B7A002B52D197F91832002BAF
:1097500003DB20220521384630E7D0F82C320846BA
:109760009B689847D4F8285210B13A22022124E786
:10977000D8F80220D5F8601212BAC7F86422B8F8F7
:1097800007305BBA9BB29818C7F8683288422DD868
:1097900002213972B7F85E124A434B43C7F864227C
:1097A000D7F81422C7F8683293427FF404AF4FF41D
:1097B0000073B5F85E22D5F8641205F10C087B81C0
:1097C000D5F86872D4F82C029F42D0F81090304639
:1097D00028BF1F46B7FBF2F3B1FBF2F29BB2414642
:1097E000C847002806DA1122042175E72122E3E6A2
:1097F0003D46DCE7BBB242468121D4F8300252F04C
:1098000045FCD5F86432D5F834223B44D21BC5F868
:109810006432D5F86832C5F83422DB1BC5F86832EB
:10982000002B7FF4E2AE03232B72DEE6D0F8285241
:109830002B7A002B4BD195F91832002BFFF6BBAEDB
:10984000D0F82C3208469B68984700287FF442AF36
:10985000D4F82C323046DB6898470346D4F8280207
:1098600013B127220221A9E6D8F80220D0F860120D
:1098700012BAC5F86422B8F807305BBA9BB29E18DA
:10988000C5F868328E4203D921220EE0102F060857
:10989000B5F85E124A434B43C5F86422D5F814224A
:1098A000C5F86832934202D02022052186E6B3F53E
:1098B000007F4FF0010105F10C0228BF4FF4007347
:1098C00029729BB2D4F8300252F0A8FB8DE6D5F88D
:1098D000687205F10C08B5F85E22B7F5007FD5F87F
:1098E0006412D0F82C0228BF4FF40077D0F81490FF
:1098F0003046B7FBF2F3B1FBF2F29BB24146C847E8
:10990000002801DA03226FE7D5F864323B44C5F83A
:109910006432D5F86832D91BD5F83432DB1BC5F870
:109920006812C5F8343219B92046FFF73DFD5CE6F0
:10993000B1F5007F0B4642464FF0010128BF4FF4BE
:1099400000739BB2BEE798F80130D0F8280213F0FC
:10995000020301D02422A8E7D0F86412B0F86822EC
:109960000A44D0F860128A428ED843813DE6D0F88E
:10997000281210B50B7A0446022B07D0033B012BAB
:1099800002D80021FFF710FD002010BD01F21B22BC
:1099900091F81912FFF7ABFD0130F5D101212046F6
:1099A000F0E770B5D0F828420546267A1EB1012EA0
:1099B00055D0002070BDD4F81032C4F83032D4F83D
:1099C0001432C4F83432D0F83032B3F82C321F2BB2
:1099D0000DD1D4F80C22264B9A4208D194F81912D2
:1099E000012904D894F81A32013B0F2B0AD92022FE
:1099F0000521204652F005FC022363722846FFF73A
:109A0000AFFCD6E704F21B22FFF771FD0130237A89
:109A100006D1052BF2D101212846FFF7C5FCC8E786
:109A2000013B022BC5D961890029F5D0D5F8282240
:109A3000D2F8143282F838628B4228BF0B46D2F833
:109A40003412C91A9BB2C2F834120421117204F103
:109A50000C028121D5F8300252F018FBA9E704F27C
:109A60001B2294F81912FFF742FD0130A1D1D2E771
:109A70005553424310B501200C4608F0E1FF054B59
:109A8000122222801A46143B022808BF1A461046AA
:109A900010BD00BFD801012008B520B903484FF020
:109AA0007BFB034808BD0348F9E700BF18E106083F
:109AB0004826012039E10608024808B54FF06CFB42
:109AC000014808BD5AE1060848260120024808B5A9
:109AD0004FF062FB014808BD5FE1060848260120FF
:109AE000024808B54FF058FB014808BD6AE1060876
:109AF00048260120002008B54FF016FC002008BDC4
:109B00002DE9F843089D894690460021202204460D
:109B10001F4658F02EFF4DB12B681A0CE3816B687D
:109B20002282E3821A0C6B8922836382484653F0B7
:109B300061FA18F0100F02D1451E6B1C3DD10828A8
:109B400002464FF0FF354FF00006A8BF08224FF045
:109B500020334946204601352360636058F008FEF3
:109B60001E4B04F10800324609EB05012381837086
:109B700058F0FEFD611EE21D11F8013FA3F16100E6
:109B800019289CBF203B0B709142F5D104F10A02C9
:109B900011F8013FA3F1610019289CBF203B0B7015
:109BA0009142F5D1182384F80B80678323733B0C13
:109BB000A382099BE361BDE8F88319F805302E2BD9
:109BC00001D0013DB9E7461B082D2A4606F1FF36B4
:109BD000A8BF0822032EA8BF0326B8E72020200034
:109BE0002DE9F04F0D46DFF8CC9385B00120043508
:109BF00090469A464FF098FB2C1FBAF1000F06D101
:109C000050464FF091FB504605B0BDE8F08FD9F8B3
:109C10007862464500F2A380A8EB0606D9F8887260
:109C2000F3083A6B06F007060233934202D3BA6B8D
:109C3000934219D93946184603934FF041FA039BD2
:109C4000074678B9A5F10803D34905F5FC7243F836
:109C5000041F9342FBD10AF1FF3A08F1010805F510
:109C60000075C9E7C9F888023A79002A5ED04FF436
:109C700000720021204658F07CFE3B6C002E3FD144
:109C800005F11C0BCDE9006613BB33460822D9F859
:109C900064122046FFF734FF4FF4F0737E6C5C468D
:109CA00004EB030B002ED6D05C45D4D0327904F1FE
:109CB0002007316806F11C00336B7AB30022CDE92E
:109CC0000002112220463C46FFF71AFFB66CE9E776
:109CD0003B6B1122B1492046FFF712FF3B6C1A6C17
:109CE000CDE9006652B9334658461122AC4905F118
:109CF0003C0BFFF705FF4FF4E073CFE71B6BF3E777
:109D0000002B14BF02230123C3EB06137E6C16B194
:109D1000013BB66CFBD14FF40073C1E796F805C068
:109D20003269CDE900024CF02102CBE7D7F828B028
:109D3000BBF1000F06D14FF400720021204658F00D
:109D400018FE88E73A6B4FF4007120469B1AFA68B8
:109D500006EBC3063B4602EB4622D8477BE7B8F149
:109D6000000F63D14FF400724146204658F001FEC7
:109D700080238C4985F8BA310C2385F8BE31D9F897
:109D80006822D9F860328A42C4F8C621C4F8CA31C0
:109D900018DDFF2285F8BB2185F8BD2185F8BC219F
:109DA000013B804A934227DDFF2385F8BF3185F8C8
:109DB000C13185F8C031552385F8FA31AA2385F8D9
:109DC000FB3148E73F2143F6C16492FBF1F192FB7E
:109DD000F4F4C1EB811685F8BD41A010921B20F070
:109DE0003F000132024385F8BC21FF2291FBF2F2D1
:109DF000114485F8BB11D3E73F2243F6C16093FBC2
:109E0000F2F293FBF0F0C2EB821485F8C1018110ED
:109E10001B1B21F03F0101330B4385F8C031FF23A9
:109E200092FBF3F31A4485F8BF21C4E7D9F86C32EA
:109E3000984536D1522300264122722123702846AC
:109E400063706123E270A37084F8E731D9F880323F
:109E500084F8E411C4F8E8314FF0FF3384F8E511D9
:109E6000314684F8E6214FF4F07284F8EC3184F83E
:109E7000ED3184F8EE3184F8EF3158F07AFD552356
:109E8000C5F8EC61C5F8F061C5F8F46184F8FE31FD
:109E90006FF0550384F8FC6184F8FD6184F8FF31AC
:109EA000D9E6D9F86832984569D14FF4007200219B
:109EB0002046082658F05DFDEB233B4AF82105F8C3
:109EC000043C582305F8033C902305F8023C136832
:109ED00045F8013C53680222C5F803300023227381
:109EE000E3726E72A273E37369743F212A73217661
:109EF0004FF0FF31D9F86802A1763E2184F82C207A
:109F000001222177D9F860126376091AE376637724
:109F10002162A377E37784F82D3084F82E3084F81B
:109F20002F30D9E99C01091A616284F8302084F845
:109F30003130802385F8426085F83C30292385F84C
:109F40003E30942385F83F300E2385F840300D23B2
:109F500085F84130154B1A68C5F843205A68C5F892
:109F600047201A899B7AA5F84B20114A85F84D3075
:109F70001368C5F84E305368C5F852301BE7D9E96D
:109F80009C13884518D3434519D9A8EB01012046F5
:109F90004FF0BAF85FE600BFDEADBEEFEB1B07087F
:109FA000EA1B0708FF03FB0078E1060881E10608C9
:109FB0008DE106083023012043453FF6BCAEA8EBF7
:109FC0000301E4E713460A460146184636F0CEBBC5
:109FD00082B0054A01901068136801991B1A8B42E0
:109FE000FAD302B0704700BF30230120002807DBFE
:109FF0004109012300F01F00024A834042F821304A
:10A00000704700BF00E100E02DE9F74F0023DFF8C3
:10A010009C814FF00F09634A012404FA03FA0C688B
:10A020000AEA04053AEA040440F0A7804C6824F0E8
:10A03000100EBEF1020F11D1DF0803F0070C00EB88
:10A0400087074FEA8C0C3E6A09FA0CFB26EA0B0BD9
:10A050000E6906FA0CF646EA0B063E624FEA430C1E
:10A060000326D0F800B00EF1FF3E06FA0CF7BEF161
:10A07000010F2BEA070B6FEA070604F0030707FA44
:10A080000CF747EA0B07076010D8876806EA070E47
:10A09000CF6807FA0CF747EA0E078760476827EA98
:10A0A0000A0E27099F4047EA0E074760C7683740F6
:10A0B0008E6806FA0CF63E43C660E6005DD5D8F819
:10A0C000446023F0030703F0030C46F4804607F1D5
:10A0D00080474FEA8C0CC8F8446007F59C37D8F8E5
:10A0E000446009FA0CFE06F480460196019EBE68A3
:10A0F00026EA0E0E2C4EB04246D006F58066B042DF
:10A1000044D006F58066B04242D006F58066B04283
:10A1100040D006F58066B0423ED006F58066B0427B
:10A120003CD006F58066B0423AD006F58066B04273
:10A1300014BF0826072606FA0CF614F4803F46EAF8
:10A140000E06BE606FEA050716680CBF3E402E4340
:10A1500014F4003F166056680CBF3E402E4314F4C2
:10A16000801F566096680CBF3E402E43A402966046
:10A17000D66854BF3E402E43D6600133102B7FF487
:10A180004BAF03B0BDE8F08F0026D4E70126D2E73D
:10A190000226D0E70326CEE70426CCE70526CAE749
:10A1A0000626C8E7003C014000000240003802409B
:10A1B00003689A69910701D500229A629A69D207C9
:10A1C00003D49A6942F001029A61704770B590F821
:10A1D000403004460D461646012B00F0168101233F
:10A1E00080F84030CB0640F19580D00640F1928057
:10A1F000638D9BB2002B40F08580E36AB3F1007F52
:10A2000003D0E36AB3F1007F68D194F84130282B82
:10A2100064D129462046FEF7B5F9AB065AD5B006FB
:10A2200058D52668202307212046F3610823F361CF
:10A2300052F0D9FC7368204643F40043736073689E
:10A2400023F0FF7323F48B3323F4FF7323F0010314
:10A250007360FFF7ADFF3368590402D433681A0402
:10A2600009D594F84130212B0CBFA36BE36B1B681D
:10A270005B689BB26385638D9BB21BB1636C43F0DB
:10A28000040363646B0710D5636A726A591C6162C8
:10A290001A70238D4BB1013B2385638D013B9BB22B
:10A2A0006385636C43F00403636400232363636387
:10A2B00084F84230636C002B00F09A80616C204679
:10A2C000FEF78EF994F84130282B03D12946204619
:10A2D000FEF758F9002084F8400070BDE26A236858
:10A2E00012F5803F0BD094F84120292A07D1102283
:10A2F0002046DA61FFF75CFFFEF725F98DE71022B3
:10A30000DA618AE723681022DA61636C43F00403A0
:10A31000636482E769071DD572071BD5638D9BB205
:10A3200063B123685A6A636A591C61621A70238D8B
:10A33000013B2385638D013B9BB26385638D9BB29B
:10A34000002B7FF46AAFE36A13F5803F3FF465AFFB
:10A350002046D1E72B072CD530072AD594F8413079
:10A36000226803F02803282B20D193699169936810
:10A37000D068E068022813D1C3F3C21383EA114303
:10A3800013F006030CD1A16C0131A164A16C022968
:10A390007FF443AF0821A364D16184F840303CE7E7
:10A3A0000421204652F01FFC0023F6E70823D36166
:10A3B000FAE7A9077FF531AFB2077FF52EAF638DBE
:10A3C0009BB26BB1636A5A1C626222681B7893620B
:10A3D000638D013B9BB26385238D013B23851CE785
:10A3E000E36AB3F1807FB3D0E36A002BB0D014E707
:10A3F000E36A13F5803F05D0054BE362202384F820
:10A40000413067E794F84130F8E7022065E700BF84
:10A410000000FFFF194B9A6802F00C02042A28D0B2
:10A42000082A28D15A68596802F03F02586811F486
:10A43000800F47F6C07191FAA1F3B3FA83F300EAF3
:10A44000010020FA03F014BF0D4B0E4BB3FBF2F3E7
:10A4500058430A4B4FF440325B6892FAA2F2B2FAC8
:10A4600082F203F44033D34001335B00B0FBF3F0DE
:10A470007047034870470348704700BF00380240E8
:10A4800000127A000024F400094B4FF4E0529B685C
:10A4900092FAA2F2B2FA82F203F4E053D340054AF0
:10A4A0001344054ADB7BD2F8C001D840704700BF97
:10A4B00000380240102F060800000120094B4FF41D
:10A4C00060429B6892FAA2F2B2FA82F203F460430D
:10A4D000D340054A1344054ADB7BD2F8C001D8407B
:10A4E000704700BF00380240102F0608000001200E
:10A4F00038B505460468C3692969AA6820680A4313
:10A5000069690A4376491A430140286A0A43E9689F
:10A510002260626822F440520A436260AA69A1681C
:10A52000024321F430610A43A2606E4A944214D17E
:10A5300002F59432D2F8902002F00302022A00F0D1
:10A54000BB80032A00F0AF80012A69D0B3F5004F29
:10A5500000F09680FFF7B2FF13E0634A944224D1E3
:10A5600002F5FA32D2F8902002F00C02082A00F02C
:10A57000A3800FD8002A53D1B3F5004F79D0FFF74D
:10A5800083FF6B6800EB5300B0FBF3F080B2E06038
:10A590000020A4E00C2A00F08680B3F5004F4FF0B5
:10A5A000010040F09C80002393E0504A94420AD17D
:10A5B00002F5F832D2F8902002F03002202A7BD047
:10A5C000D8D9302AE7E74A4A94420AD102F5F6324E
:10A5D000D2F8902002F0C002802A6DD0CAD9C02AD9
:10A5E000D9E7444A94420CD102F5F432D2F89020D3
:10A5F00002F44072B2F5007F5ED0BBD9B2F5407F65
:10A60000C9E73D4A944214D102F59232D2F8902023
:10A6100002F44062B2F5006F4ED007D8002A95D000
:10A62000B3F5004F39D1FFF7F5FE24E0B2F5406FE6
:10A63000B1E7324A94420CD102F5E032D2F89020D0
:10A6400002F44052B2F5005F36D093D9B2F5405FC4
:10A65000A1E72B4A9442A0D102F5DE32D2F8902035
:10A6600002F44042B2F5004F26D083D9B2F5404FF4
:10A6700091E7FFF709FF6A68530803EB400324E002
:10A68000FFF71CFFF7E7530803F5740303F51053B6
:10A69000B3FBF2F39BB2E3607AE7FFF7BBFE70E730
:10A6A00003F50043F4E7B3F5004F6A684FEA52033D
:10A6B000F6D103F5803308E0B3F5004F6A68E2D1C4
:10A6C000530803F1F47303F590430020B3FBF2F356
:10A6D0009BB223F00F02C3F342031343E36038BD80
:10A6E000F369FFEF001001400044004000480040C3
:10A6F000004C004000500040001401400078004031
:10A70000007C0040034B0B44DA7D835823F00103A7
:10A7100083507047102F0608F8B504692023456858
:10A720001F2C11D9A4F120016A688B4013420AD072
:10A7300083691A7C032A0AD11F2C4FF0200323D9E6
:10A74000203CA340EB60F8BD2A68A340EEE71A7CEA
:10A75000022A01D100221A7459680D4A4E790F68F5
:10A7600002EB46060969F868368CC1F30321DB6801
:10A7700006F4F05602EB810220EA0600916AF860C6
:10A780005868FFF7BFFFD7E7A340AB60DBE700BF28
:10A79000102F0608A248A34AA349121A70B5A4B004
:10A7A00057F0E6FFA14A0020D2F8883043F4700346
:10A7B000C2F888309E4B196841F001011960986019
:10A7C000196821F0847121F4803119609949596028
:10A7D000196821F4802119609749D8609160BFF30E
:10A7E0004F8FBFF36F8FC2F85002BFF34F8FBFF38D
:10A7F0006F8F516941F400315161BFF34F8FBFF347
:10A800006F8F1A6C42F080521A641A6C02F08052F8
:10A810000292029A894A116841F44041116012681B
:10A8200002F440420192019A9A6802F00C02042A52
:10A8300007D09A6802F00C02082A65D15B685B02B7
:10A8400062D57B4B1B687A4A936803F00C03082B94
:10A8500068D013687A4C23F0807313602168136802
:10A860009D0160D447F6C07090FAA0F04FF44033D9
:10A87000B0FA80F093FAA3F34FF0706191FAA1F16E
:10A880004FF4D873B1FA81F18340092000FA01F145
:10A890000B4343F0015343F008035360136843F044
:10A8A00080731360624B21681A68900140D51A6C5E
:10A8B00042F080521A641B6C03F080530393039B95
:10A8C0005E4B1A6842F480321A6021685A68D203DB
:10A8D00033D51A6842F400321A60584A2168536826
:10A8E0009B0330D54FF400134FF4C07C04A80493AD
:10A8F0004FF0006321930723CDE908C303230A9394
:10A90000FDF706FF28B3FEE7494B4D491A6842F4AC
:10A9100080321A6008681A68960394D40A68121A7A
:10A92000642AF8D9FEE723685B1A022B97D9F9E766
:10A930002268521A022AB7D9F4E72268521AB2F5ED
:10A940007A7FC3D9FEE723685B1AB3F57A7FC6D94D
:10A95000F8E73C4A136803F00F03062B0AD8136884
:10A9600023F00F0343F007031360136803F00F0392
:10A97000072B53D12E4B9A6822F0F0029A601A6886
:10A9800090014BD59A6841F2883022F0030242F0E0
:10A9900002029A6021689A6802F00C02082A39D1F2
:10A9A000284A1368190755D4214CA36823F4E053AF
:10A9B00043F4A053A360A36823F4604343F400432B
:10A9C000A360FFF727FDA368F02292FAA2F2B2FA81
:10A9D00082F203F0F0031C4ED3401C4D334493F835
:10A9E0004830D840C5F8C0014EF038FE184B04A8D6
:10A9F00004930023CDE91333CDE91533CDE91733A3
:10AA0000CDE91933CDE91B33CDE91D33FDF780FEC8
:10AA100060B3FEE72268521A8242BCD9FEE700BF4B
:10AA200000000000B02A00000448070800ED00E024
:10AA30000038024010300024000000080070004080
:10AA400030230120003C0240102F060800000120A6
:10AA5000C0FF0300136823F00F0343F007031360E4
:10AA6000136803F00F03072B9ED0D7E7D4F88C3080
:10AA700023F08073C4F88C30D4F88C3043F08073AA
:10AA8000C4F88C30A36803F00C03042B27D0082BE8
:10AA900027D16368626813F4800F636802F03F0295
:10AAA00018BF1249C3F3881308BF1149B1FBF2F272
:10AAB0005343104A5268C2F3014201325200B3FBC1
:10AAC000F2F30C4A9268C2F30312164496F8482037
:10AAD000D340094A9342C5F8C03104D0FEE7034B86
:10AAE000EFE7034BEDE724B070BD00BF00127A0022
:10AAF0000024F4000038024000E6DF0C2DE9F843A2
:10AB0000036806460F46DFF85081C3F30D04002C9E
:10AB100068D14E4A93421ED302F58042934219D324
:10AB200002F5804293424AD3494A934249D902F5F9
:10AB30008032934247D902F50032934245D902F55B
:10AB40000032934243D902F50032934241D90520A5
:10AB500009F059FF012498F82C34012B3ED0012331
:10AB600088F82C344EF0F6FC8146002833D1394D5C
:10AB70002B6923F440732B612B6943F400732B6121
:10AB80002B6923F0F8032B61782393FAA3F3B3FA2C
:10AB900083F32A699C40144344F002042C612B691E
:10ABA00043F480332B61BFF34F8F4EF0D3FC2B69FE
:10ABB00023F07A032B61E0B188F82C940EE0022494
:10ABC000C9E70324C7E70424C5E70524C3E706242F
:10ABD000C1E70724BFE7002388F82C344FF0FF308B
:10ABE000BDE8F88398F82C34012B02D16FF00100F6
:10ABF000F6E70123D6F800903F6888F82C344EF031
:10AC0000A9FC054618B1002388F82C34EEE7114C56
:10AC1000236923F440732361236943F400732361A0
:10AC2000236943F001032361C9F80070BFF34F8F1C
:10AC30004EF090FC236923F00103236188F82C5423
:10AC40000028D3D1336804333360C9E700400008DB
:10AC5000FFFF0008003C0240302301200148FDF7BF
:10AC600027BD00BF682701200148FDF70FBA00BFCC
:10AC7000682701200148FDF71BBD00BFB827012050
:10AC80000148FDF703BA00BFB82701200148FDF7CE
:10AC90000FBD00BF082801200148FDF7F7B900BF2C
:10ACA000082801202DE9F047904F4FF00C08064688
:10ACB00008FB0078D8F8EC41002C00F0118198F8DE
:10ACC000F2014EF00FFB98F8F00106F06DFD05461D
:10ACD00098F8F10106F068FD731C8046DBB21DB1E7
:10ACE00040F60C122B72EA80B8F1000F05D040F646
:10ACF0000C2288F80830A8F8062028464FF0090AE8
:10AD000005F0FCF8404605F0F9F81121284606F058
:10AD1000FFFC1121404606F0FBFC4FF0650903E003
:10AD20000520002109F04AFE284605F0DEF810B99A
:10AD3000B9F10109F4D1284606F032FC00210520C2
:10AD400009F03CFE284605F0D9F80520002109F05D
:10AD500035FEBAF1010AE0D128464FF00C0906F0A1
:10AD60001FFC0021052009FB067909F027FE40465B
:10AD700006F016FC0021052009F020FE284605F00B
:10AD8000BDF80021052009F019FE404605F0B6F88F
:10AD900099F8F6A128463E215246554D06F0DEFCB4
:10ADA000524640463E2106F0D9FC502303FB065391
:10ADB000C3F83844FFF768FB99F8F331022B00F031
:10ADC0009180032B00F09080012B14BF4FF4C871C9
:10ADD0004FF448714EF0FEF9502200214FF0010C63
:10ADE00002FB0653C3F84014C3F84814C3F84C14CC
:10ADF000C3F85414C3F8581493F87914C3F844C42E
:10AE0000C3F83C0401F0FF0C09B983F878C402FBD5
:10AE100006524FF0240C20F0706082F879C4236849
:10AE200023F0010323602061A36823F40043A3609F
:10AE30004FF40043A360636843F0007343F400439E
:10AE40006360E36823F40043E360D2F850341B02EC
:10AE5000E36000232360216841F00101216020218B
:10AE6000C2F87C3482F87914C2F8683482F87A34F3
:10AE700092F879142029C8B217D192F878140129D0
:10AE800013D082F879C4216821F001012160216882
:10AE900021F48051216021682160216841F0010185
:10AEA000216082F8790482F878340C23022103FBB4
:10AEB000067797F9F54120464EF0A2FB2046FFF7B2
:10AEC00095F897F9F441022120464EF099FB20466F
:10AED000FFF78CF8502303FB0655012385F8343423
:10AEE000BDE8F087642175E7C82173E70000012001
:10AEF000302301202DE9F04F9A4685B0431C0746C8
:10AF0000039288469DF83C2008D0C84E502303FB8E
:10AF1000006393F834B4BBF1000F05D14FF0000B80
:10AF2000584605B0BDE8F08F039BFF2B03D0BAF164
:10AF3000000F40F0BA80002A00F0B78050247C4314
:10AF4000351995F87934202B40F0F78095F878344E
:10AF5000012B00F0F280B64B0122D6F800904FF49E
:10AF600000411C4485F878241923CDF80090204630
:10AF7000FDF7A6F8002840F0E080212308FA02F847
:10AF8000C5F86C0485F87934102385F87A340E9B63
:10AF9000C5F87C04C5F85C34A5F862A4B5F8623441
:10AFA0009BB2FF2B30D94FF40053FF22A5F8602449
:10AFB00000934FF0807350254146204605FB0765FE
:10AFC000FDF79CF8B5F86234494620469BB23BBB7E
:10AFD0004EF078FA38BBD5F838342021D9615A6858
:10AFE00022F0FF7222F48B3222F4FF7222F001026F
:10AFF0005A60502385F8791403FB0766002385F80F
:10B000007A0486F878348BE7B5F862244FF400535D
:10B0100092B2A5F86024D2B200934FF00073CAE751
:10B020004EF074FA10B1D5F87C3486E0D5F85C3473
:10B030005A1CC5F85C24D5F838241B789362B5F8FF
:10B040006024B5F86234013A013B92B29BB2A5F894
:10B050006024A5F86234002AB4D1B5F862349BB2FA
:10B06000002BAFD00A2380212046CDF80090FDF7B9
:10B0700027F8002861D1B5F862349BB2FF2B0AD9BA
:10B08000FF224FF08073A5F86024009041462046CF
:10B09000FDF734F896E7B5F862244FF0007392B2EA
:10B0A000A5F86024D2B20090F0E750247C43351913
:10B0B00095F87934202B40D1BAF1000F3DD095F8A6
:10B0C0007834012B39D05A4B0122D6F800904FF436
:10B0D00000411C4485F878241923CDF800902046BF
:10B0E000FCF7EEFF48BB212308FA02F8C5F86C0410
:10B0F00085F879344023414685F87A340E9BC5F8AB
:10B100007C042046C5F85C344FF40053A5F862A4D3
:10B1100000934FF08073FCF7F1FF494620464EF054
:10B12000F5F9024698B1D5F87C34502303FB076348
:10B13000D3F87C24002283F87824B6F824353846E6
:10B1400001339BB2A6F82435FFF7ACFDE6E6D5F84F
:10B1500038342046039999620A238021CDF8009063
:10B16000FCF7AEFF0028E0D1B5F862349BB2FF2BAC
:10B1700009D8B5F862244FF0007392B2A5F86024A4
:10B18000D2B2009005E0FF224FF08073A5F8602452
:10B1900000904FF0500A414620460AFB0765FCF735
:10B1A000ADFF494620464EF0B1F920B10AFB076ACF
:10B1B000DAF87C34C1E7D5F85C345A1CC5F85C2455
:10B1C000D5F838241B789362B5F86024B5F862345A
:10B1D000013A013B92B29BB2A5F86024A5F8623413
:10B1E000DAB9B5F862349BB2BBB10A23802120469C
:10B1F000CDF80090FCF764FF00289ED1B5F86234CA
:10B200009BB2FF2B16D9FF224FF08073A5F8602464
:10B21000009041462046FCF771FFB5F862349BB2BE
:10B22000002BBED149462046D2E600BF3023012084
:10B2300068270120B5F862244FF0007392B2A5F898
:10B240006024D2B20090E4E72DE9F04FB0F1FF3F67
:10B2500085B08046924603939DF83C3008D0502438
:10B26000AA4E4443351995F834B4BBF1000F05D10B
:10B270004FF0000B584605B0BDE8F08F3444FF2A6C
:10B280004FEA410704F5876440F0DA80002B00F0B4
:10B29000D78095F87934202B75D195F87834012B27
:10B2A00071D00122D6F8009019234FF4004185F89F
:10B2B00078242046CDF80090FCF702FF002862D1E8
:10B2C0002223C5F86C0485F87934102385F87A3484
:10B2D0000E9BC5F87C04C5F85C34039BA5F862346A
:10B2E000B5F862349BB2FF2B1DD94FF41053A5F86B
:10B2F00060A4524600934FF0807350253946204693
:10B3000005FB0865FCF7FAFEB5F862349BB2002B2A
:10B3100054D1494620464EF0D5F8002800F055811A
:10B32000D5F87C342FE0B5F862244FF4105392B274
:10B33000A5F86024D2B200934FF00073DDE74946D0
:10B3400020464EF087F8C8B9D5F838349A6912F01B
:10B35000200222D02021D9615A6822F0FF7222F403
:10B360008B3222F4FF7222F001025A60C5F87C048D
:10B3700085F8780485F8791485F87A04502303FB5E
:10B380000863D3F87C34B6F82435404601339BB2C9
:10B39000A6F82435FFF786FC6AE73368A3EB0903B8
:10B3A0000A2B0BD9D5F87C3485F8782443F0200398
:10B3B000C5F87C34202385F87934DFE7D5F83834B4
:10B3C0009A695207BBD55A6AD5F85C34591CC5F83E
:10B3D0005C141A70B5F86024B5F86234013A013B88
:10B3E00092B29BB2A5F86024A5F86234002A8BD1F2
:10B3F000B5F862349BB2002B86D00A238021204608
:10B40000CDF80090FCF75CFE0028BCD1B5F86234A2
:10B410009BB2FF2B0AD9FF224FF08073A5F860245E
:10B42000009039462046FCF769FE6DE7B5F86224C6
:10B430004FF0007392B2A5F86024D2B20090F0E70A
:10B44000502505FB086595F87934202B9BD10E9B80
:10B45000002B98D095F87834012B94D00122D6F89F
:10B46000009019234FF4004185F878242046CDF848
:10B470000090FCF725FE0346002884D12221C5F860
:10B480006C0485F879144FF0400185F87A140E9910
:10B49000C5F87C042046C5F85C140399A5F862142D
:10B4A0004FF4005100913946FCF728FE49462046EA
:10B4B0004EF02CF8024650B1D5F87C34502303FBF3
:10B4C0000863D3F87C24002283F878245BE7D5F85E
:10B4D000383440212046C3F828A00A23CDF8009034
:10B4E000FCF7EEFD0028E9D1B5F862349BB2FF2BE2
:10B4F0000ED8B5F862244FF4105392B2A5F8602428
:10B50000D2B200934FF000730AE000BF3023012055
:10B510004FF41053FF22A5F8602400934FF080737E
:10B5200050253946204605FB0865FCF7E7FD0A2350
:10B53000002204212046CDF80090FCF7C1FD002830
:10B540007FF421AFD5F83834596AD5F85C34581CEB
:10B55000C5F85C041970B5F86034B5F86214013BA5
:10B5600001399BB289B2A5F86034A5F86214E3B939
:10B57000B5F862349BB2C3B10A2380212046CDF8CE
:10B580000090FCF79DFD00287FF4FDAEB5F8623415
:10B590009BB2FF2B0FD9FF224FF08073A5F86024D8
:10B5A000009039462046FCF7A9FDB5F862349BB2FD
:10B5B000002BBCD1ADE6B5F862244FF0007392B217
:10B5C000A5F86024D2B20090EBE7D5F838342021FA
:10B5D000D9615A6822F0FF7222F48B3222F4FF7292
:10B5E00022F001025A60502385F8791403FB0866A3
:10B5F000002385F87A0486F878343BE60348D0F8CF
:10B600001C3213B100F50470184770470000012088
:10B610000348D0F83C3213B100F50C70184770475E
:10B62000000001200348D0F85C3213B100F514701B
:10B6300018477047000001200348D0F87C3213B14E
:10B6400000F51C7018477047000001200348D0F82F
:10B650009C3213B100F52470184770470000012098
:10B660000348D0F8BC3213B100F52C70184770476E
:10B67000000001200348D0F8DC3213B100F534702B
:10B6800018477047000001200348D0F8FC3213B17E
:10B6900000F53C7018477047000001200348D0F8BF
:10B6A0001C3313B100F544701847704700000120A7
:10B6B0000348D0F83C3313B100F54C70184770477D
:10B6C000000001200348D0F85C3313B100F554703A
:10B6D00018477047000001200348D0F87C3313B1AD
:10B6E00000F55C7018477047000001200348D0F84F
:10B6F0009C3313B100F564701847704700000120B7
:10B700000348D0F8BC3313B100F56C70184770478C
:10B71000000001200348D0F8DC3313B100F5747049
:10B7200018477047000001200348D0F8FC3313B1DC
:10B7300000F57C70184770470000012038B5446858
:10B7400044F4805444603BB9012004E0013C05D13D
:10B75000FCF743FD002038BD40F2E9348568AD07B1
:10B76000F4D56AB112F8014B047340F2E9348568EC
:10B77000ED0707D5C46809B101F8014B013BE2E7C9
:10B78000FF24F1E7013CF2D1E2E70023054A52F839
:10B790003310814201D1D8B2704701330E2BF6D15C
:10B7A000FF207047682F06080023064A52F833101E
:10B7B000814201D1D8B2704701330E2BF6D1FE2061
:10B7C000704700BF682F060870B507EE902A0E4636
:10B7D000002800F087800368F8EE677AD3E9003527
:10B7E0001C68414B93ED707AB8EE477A87EE270AD2
:10B7F000DFED3E7A30EE270A54F0F4FE2B68013874
:10B80000711E9C4280B289B205D16B68834202D11D
:10B81000EB688B4266D00023E960C5E90433AB6076
:10B820008023C5E90040AB61284651F061F9304BF7
:10B830009C4216D0B4F1804F13D0A3F57C439C42B8
:10B840000FD003F580639C420BD003F580639C42CC
:10B8500007D003F578439C4203D003F570539C4214
:10B8600040D195F83C30012B3CD0022385F83D3087
:10B87000204BA2681340A360A36823F4803323F015
:10B880000703A360012385F83D30002385F83C3091
:10B89000174B9C4212D0B4F1804F0FD0A3F57C43DC
:10B8A0009C420BD003F580639C4207D003F5806374
:10B8B0009C4203D003F578439C4213D10C49636842
:10B8C0008C42A26803D001F580618C4201D123F43F
:10B8D000700323F0700322F0800263600023A260F3
:10B8E00085F83C3070BD00BF000001200AD7233C22
:10B8F000000001408800FEFF2DE9F0410746006886
:10B90000FFF752FF0D28064607D9224A00210520DD
:10B9100003F02AF80020BDE8F081DFF8848008EB0E
:10B920008005D5F8284534BB0721682003F080F84E
:10B930000146C5F8280508B9174AE8E721466822F4
:10B9400057F017F8154BD5F8285503F1580203EBBB
:10B95000C603AD6002EBC602986D2D622A60AD632E
:10B960002D65FFF721FF0D289CBF08F5AC6808EB9B
:10B9700080146C602C467D791823002103FB05F2AE
:10B9800005FB0333A0180832C760C0E90411A018F2
:10B99000E154C0E796E10608BBE10608102F06084F
:10B9A0003023012043680268F0B5526858799C79C9
:10B9B000964BC4F34004034492F83C00012893F8EA
:10B9C000C83017D001200C2B82F83C004FF0020049
:10B9D00082F83D0000F0C8800DD8042B67D0082BFA
:10B9E00000F09280002B32D0012382F83D300023FA
:10B9F00082F83C30F0BD102B00F0DD80142BF3D129
:10BA00001368186A20F4801018621D6A5E6825F4B5
:10BA10000015586D45EA445420F080707C4D20F4A8
:10BA2000E040AB4240F4C04003D005F58065AB4236
:10BA300001D146F480265E605865D9651C62596D57
:10BA400041F400615965596D21F48061D9E01368B2
:10BA50006F4F186ABB4220F001001862186A5E68D6
:10BA60009D6920F0020025F4803540EA440025F06D
:10BA7000730545F0600503D007F58067BB4207D129
:10BA800020F0080046F4407640EAC40020F00400AC
:10BA90005E609D6159631862996941F0080199617E
:10BAA000996921F004019961996999619CE713688A
:10BAB000574F186ABB4220F010001862186A5E687F
:10BAC0009D6920F0200025F0807540EA441025F49F
:10BAD000E64545F4C04503D007F58067BB4207D172
:10BAE00020F0800046F4406640EAC41020F0400098
:10BAF0005E609D6199631862996941F40061996182
:10BB0000996921F48061CEE71368414F186ABB42FE
:10BB100020F480701862186A5E68DD6920F4007095
:10BB200025F4803540EA442025F0730545F0600592
:10BB300003D007F58067BB4207D120F4006046F4CC
:10BB4000405640EAC42020F480605E60DD61D96325
:10BB50001862D96941F00801D961D96921F004015D
:10BB6000D961D969D9613FE71368186A20F4805018
:10BB700018621D6A5E6825F40055D86945EA4434A8
:10BB800020F08070224D20F4E640AB4240F4C040EB
:10BB900003D005F58065AB4201D146F480465E6076
:10BBA000D86119641C62D96941F40061D961D9690D
:10BBB00021F48061D4E71368186A20F48030186299
:10BBC0001D6A5E6825F40035586D45EA444420F44A
:10BBD00080300F4D20F07000AB4240F0600003D089
:10BBE00005F58065AB4201D146F480365E6058654C
:10BBF00099651C62596D41F008015965596D21F034
:10BC000004015965596D5965EEE600BF102F06080D
:10BC10000000014043685A79032A0FD8DFE802F098
:10BC20000205080B186834307047186838307047C0
:10BC300018683C30704718684030704700207047E3
:10BC4000D0E9003251795868054B0B4493F8C8107D
:10BC500093795B0701D550F0D4BD50F0E6BD00BF2D
:10BC6000102F06082DE9F843436888462E4F0446F6
:10BC70001B69C3F3032307EB8303996AC3685D68F9
:10BC8000EFF31186102383F312884268106852790B
:10BC9000C36807EB4202128C02F4F05223EA02035B
:10BCA000C3602846FEF72EFDE3681A695868202312
:10BCB0001F2A31D9203A9340C360F6B286F3118827
:10BCC0001A4842F21072435C2B441E68F60702D5F4
:10BCD00000BF013AF9D1465CAB5905EB0609DB0719
:10BCE0001DD40F442046FA7D67692A4453686FF3D8
:10BCF0000F0343EA08035360FFF78CFFC9F80C7089
:10BD0000C9F80800AB5943F01003AB51AB5943F0ED
:10BD10000103AB51012303E093408360CDE700238F
:10BD20002374BDE8F88300BF102F0608272F0608EC
:10BD30000268137E012B26D1022313764FF4007381
:10BD400092F83010012904D1022143F4806382F873
:10BD5000301092F84810012904D1022143F4006305
:10BD600082F8481092F8601001290ED1022143F4A4
:10BD7000805382F860101268002112685162D16805
:10BD80000B43D36003E00023DAE7002BF3D17047C5
:10BD9000024B0348D3F82815FCF790BF302301204D
:10BDA0000000014010B5064C0648D4F82815FCF7F1
:10BDB00085FFD4F84C150448BDE81040FCF77EBF61
:10BDC000302301200000014000440140034B4FF0AC
:10BDD0008040D3F82C15FCF771BF00BF3023012041
:10BDE000024B0348D3F83015FCF768BF302301201D
:10BDF00000040040024B0348D3F83415FCF75EBF43
:10BE00003023012000080040024B0348D3F83815C6
:10BE1000FCF754BF30230120000C0040024B0348C4
:10BE2000D3F84415FCF74ABF302301200004014039
:10BE300010B5064C0648D4F84415FCF73FFFD4F87B
:10BE400058150448BDE81040FCF738BF30230120E6
:10BE500000040140001C004010B5064C0648D4F810
:10BE60004415FCF72BFFD4F85C150448BDE81040DE
:10BE7000FCF724BF302301200004014000200040D3
:10BE8000024B0348D3F84815FCF718BF30230120B4
:10BE900000400140024B0348D3F85015FCF70EBF99
:10BEA0003023012000480140024B0348D3F85415C9
:10BEB000FCF704BF3023012000180040404B8EB037
:10BEC0001A6B42F480221A631A6B02F480220092E9
:10BED000009A1A6B42F480121A631A6B02F48012F1
:10BEE0000192019A1A6B42F480021A631A6B02F4EF
:10BEF00080020292029A1A6B42F000521A631A6B85
:10BF000002F000520392039A1A6B42F080421A63C5
:10BF10001A6B02F080420492049A1A6C42F40032C6
:10BF20001A641A6C02F400320592059A1A6C42F4F3
:10BF300080221A641A6C02F480220692069A1A6C05
:10BF400042F400221A641A6C02F400220792079A43
:10BF50001A6C42F480121A641A6C02F4801208926D
:10BF6000089A1A6C42F080421A641A6C02F08042FD
:10BF70000992099A1A6C42F000421A641A6C02F093
:10BF800000420A920A9A5A6C42F010025A645A6CA1
:10BF900002F010020B920B9A5A6C42F020025A6483
:10BFA0005A6C02F020020C920C9A5A6C42F4006215
:10BFB0005A645B6C03F400630D930D9B0EB07047E5
:10BFC000003802402DE9F04117462B4A98460546B5
:10BFD00002EB8003D3F8CC407CB304F1AE03EC3227
:10BFE00094F8AD00261DA36104F5D7736260E36188
:10BFF0004FF48073E160C4E904332368C4F8A830C7
:10C00000A36305F0D1FB18F0080F19D00135EDB28C
:10C0100018B140F20673C380057294F8B62202216B
:10C0200005F09CFBD4F8B81294F9B7024DF0E8FA89
:10C0300094F9B7023446FDF7D9FF2046BDE8F081F8
:10C04000BA0794F8AC800BD56B1CDBB218B140F288
:10C0500006520372C28094F8B622022105F07EFBDC
:10C06000FB07DFD50135404605F09EFBEDB2002809
:10C07000D3D040F20663CEE7102F06080148FCF744
:10C0800088BE00BF140401200148FCF782BE00BF37
:10C09000D00601200148FCF77CBE00BF8C090120BE
:10C0A0000148FCF776BE00BF480C01202DE9F041A5
:10C0B0002423456B8268044680F89D3000F13407E4
:10C0C0002B6823F001032B6000232B606B60AB60B7
:10C0D0008263827946799102C0F8A03006F00108A7
:10C0E00080F89D3001F4805116F0020680F89E30F1
:10C0F000C1634FEA023180F89C3001F40051C364FF
:10C1000043654FEA880301644FEA022118BF43F0F8
:10C11000080301F480618364D307416411D5B8F149
:10C12000000F06D0836D43F0020383654FF4803324
:10C13000036636B1A36D43F00103A3654FF40033EA
:10C14000E365242312F0080F94F89D20384684F804
:10C150009D302B6823F001032B6035D0FEF7C8F922
:10C16000012817D0A36D13B13846FBF7E1FF6B68C8
:10C1700023F490436B60AB6823F02203AB60AB68A1
:10C1800043F00803AB6038462B6843F001032B6093
:10C1900050F0DEFAB8F1000F0DD0D4F8A4301A68D0
:10C1A00042F480721A609A6842F001029A601A683A
:10C1B00042F020021A602EB1D4F8A420136843F094
:10C1C00080031360BDE8F081FEF792F90128E1D009
:10C1D000A36D13B13846FBF7ABFF6B6823F49043B4
:10C1E0006B60AB6823F02A03CCE781605EE74171A6
:10C1F0005CE781715AE710B51C2005F0D5FA0446BA
:10C20000112105F085FA204605F0CAF9C82008F08A
:10C21000E5FB2046BDE8104003F070BE804B2DE9E1
:10C22000F04FD3F8E04887B0636913F0010301933E
:10C2300040F082856269A3691A4200F07D856369D6
:10C24000A26913409B0701D5022363616369A26958
:10C2500013401F0300F1E880714DD5F8E0385A69AA
:10C2600099690A40560311D5D3F8182803F50063DD
:10C2700005F50E6704F51069DB69002602EA03087C
:10C280001FFA88F8B8F1000F40F06083D5F8E06835
:10C290007269B3691A4216D5D4F8043823F0010341
:10C2A000C4F8043895F8CC3C012B15BFD5F8DC3C1C
:10C2B000002393F8FD2185F8CC3C18BF83F8FC21BE
:10C2C0004FF0004373617369B26913401B0510D5C9
:10C2D000D4F80838DF0709D5514BD3F8DC3C93F884
:10C2E000FC2183F8FD21042283F8FC214FF4006334
:10C2F00073617369B2691340180110D54FF0006380
:10C300007361474B93F8CC2C002A40F03084012213
:10C3100083F8CC2C726DC2F38302C3F8D02C7369FE
:10C32000B2691340D90439D5D4F804381021304605
:10C3300004F5006723F001037B6050F020F83849D2
:10C3400004F510630022D1F8E4C8FF20624540F0F4
:10C3500019844FF0FF33BB61FB6943F00113FB61AC
:10C36000D1F81039002B00F01484D7F8843043F052
:10C370000B03C7F884307B6C43F00B037B64D4F869
:10C3800000383046274A23F4FE6395F8F018C4F8C5
:10C3900000384FF08AFF4FF4805373617369B269BC
:10C3A00013409A0440F14E84D6F800396FF30A0323
:10C3B000C6F8003906F500639A6802F00602042AFE
:10C3C00005D1D6F8002942F00302C6F800295A68C0
:10C3D00042F480725A60F26822F47052F2609A68F5
:10C3E00012F0060F11D09A6802F00602022A00F03D
:10C3F000DF839A6802F00602062A00F0D9839B6860
:10C4000003F00603042B00F0D3830023C5F8EC38B7
:10C410004FF40073C5F8F438F36843F41053D9E3CC
:10C4200030230120CC2F0120D4F8183804F53069CE
:10C43000D4F81C284FF00008AB4F1340A7F50E6648
:10C440001B0C0093009B002B3FF406AF009B13F0E6
:10C45000010A00F03E81D6F8E03803F5306203F5BA
:10C46000006302EB481292685B691340D80702939D
:10C470003DD50123C9F80830D6F8F038012B0DD18D
:10C48000D9F81030D7F80022C3F31203D31AC7F833
:10C490001032D7F804321344C7F80432D6F8DC5C03
:10C4A000B8F1000F6BD1D5F8F431032B11D1D5E9D8
:10C4B0004313994255D9C91AD7F80422D5F8300246
:10C4C0008B42C5F80C1128BF0B4641469BB24FF07A
:10C4D000A5FDD6F8F018012909D1D6F8EC3A58EAAA
:10C4E000030304D1814AD6F8E0084FF0DEFE029B38
:10C4F000190740F1E280D6F8DC5C012196F89CCC6B
:10C5000005F5027B85F808C296F89DEC85F809E2EE
:10C51000B6F89E3CA5F80A32B6F8A00CA5F80C02B5
:10C52000B6F8A22CC5E97D120CF01F01A5F80E2269
:10C53000012900F04C81022900F05E81002940F0C1
:10C540000282BEF1090F00F29180DFE81EF01901AE
:10C5500035018F002A018F00890026008F00090114
:10C56000D100D5F814321B692BB195F8FC21032AB0
:10C5700001D12846984728464FF055FEA9E7D5F83F
:10C5800014329B69002BA4D095F8FC21032AA0D17A
:10C590005FFA88F1284698479BE71A0A013A062A6B
:10C5A00064D8DFE802F0041D2A63634A5300D5F81B
:10C5B00010321B680DF11601287C9847BDF8162033
:10C5C000002A77D0B5F80E32002B73D09A4201467C
:10C5D00028BF1A46ADF8162028464FF02DFE69E018
:10C5E0002A7CD5F8143232B99B6A0DF116009847AF
:10C5F00002234370E2E7DB6AF7E7DBB2052B35D8AD
:10C60000DFE803F003070B0F1317D5F810325B6850
:10C61000D0E7D5F810329B68CCE7D5F81032DB684C
:10C62000C8E7D5F810321B69C4E7D5F810325B694A
:10C63000C0E7D5F810329B69BCE72B7CB3B9D5F8BD
:10C6400014320DF116005B6B9847B7E72B7C6BB982
:10C65000D5F814320DF116001B6B98470723C8E775
:10C66000104303D195F8FC21032A01D1284667E045
:10C6700003F07F0AD5F8303285F8FEA193F8B8238D
:10C68000012A0ED01A68D2F8001821F4FE61C2F80F
:10C690000018D2F8001841EA0A11C2F8001883F80D
:10C6A000B80328464FF0BFFDBAF1000F1AD002239D
:10C6B00085F8FC310823C9F80830029BD90602D559
:10C6C0001023C9F80830029B9A0602D52023C9F826
:10C6D0000830009B08F1010809F120091C375B08AC
:10C6E0000093AFE60123E3E7102C0120CC2F0120BB
:10C6F000D9B2DFF8B8A401298AF8E01CB6D895F8B9
:10C70000FC31022B0FD0032BB0D1E1B90223284614
:10C71000696085F8FC31D5F814325A68904728468C
:10C720004FF081FDC6E70029F9D00121032369609C
:10C7300085F8FC312846FBF7D9FD02282846EFD1C1
:10C740004FF010FEB6E769680129E8D0D5F8143239
:10C75000C9B228465B6898479AF8E01C6960E9E727
:10C76000012A83D195F8FC31022B04D0032B7FF4EE
:10C770007DAF291D30E72946002341F8083F2BE70C
:10C7800095F8FC31023B012B3FF670AFD5F804322F
:10C7900029460222002B18BF4FF0030A41F80CAFC4
:10C7A0001AE7012B86D1C5F80432D5F81432594660
:10C7B00028469B689847B2E795F8FC21023A012A7F
:10C7C0003FF654AF012B7FF475AF0023EBE795F8EC
:10C7D000FC31032B7FF44AAFC0B203283FF646AFCB
:10C7E000D5F81432594628469B689847B5F80E325A
:10C7F000002B7FF45FAF92E70CF0600CC1B2BCF18C
:10C80000200F06D1D5F81432594628469B68984720
:10C8100050E7BEF1010F32D0BEF1030F1FD0BEF1C1
:10C82000000F7FF447AF95F8FC31022B79D0032B32
:10C830007FF41CAF0006D5F830227AD501F07F01D5
:10C840001C2005EB011300FB0121143391F83A2061
:10C85000003A194618BF01221A600222BCE695F878
:10C86000FC21022A5DD0032A7FF400AF002B9CD16B
:10C870004A069AD0D5F830024FF036FD95E795F884
:10C88000FC21022A4DD0032A7FF4F0AE002B7FF466
:10C8900011AF11F07F023FF442AF40B21C23D5F834
:10C8A00030C20028A8BF03FB01C34FF00001B6BF90
:10C8B00003FB02C303F5FC7338339970C10F1A7080
:10C8C00059709CF8B81301293FF46FAF012100287B
:10C8D0008CF8B813DCF8001013DADA7801F510617F
:10C8E0001B78023A5B01012A585820F40010585076
:10C8F00003D85A5842F080525A5000238CF8B8336B
:10C9000053E701F530615201885820F40010885037
:10C91000DB78023B012BF0D88B5843F080538B50CF
:10C92000EBE74B063FF4C6AED5F830024FF0DCFC27
:10C93000C0E61C2005EB011300FB012203F5827306
:10C9400092F8FA2184E70CF08001EDE718F0010F6E
:10C9500000F0AA80D5F8E0287001D2F8101802F58E
:10C96000106252F8CC3C02EB4612009023FA06FB10
:10C9700092684FEACB1B5FFA8BFB4BEA010B0BEA89
:10C98000020B1BF0010F44D00122D4F8343802FA14
:10C9900006F023EA0003C4F83438D5F8F038C9F8B3
:10C9A0000820934202BFD7E910239B187B64D5F877
:10C9B000DCAC002E40F0A880DAF8F431022B14D160
:10C9C000DAE907318B4277D95B1A7A6C3146DAF8AB
:10C9D0003002CAF81C309BB24FF058FB3346324647
:10C9E0003146DAF830024FF019FB9AF80032012B89
:10C9F00002D100238AF80032D5F8F018012908D1B5
:10CA0000D5F82C39334304D1674AD5F8E0084FF004
:10CA10004CFC1BF0080F02D00823C9F808301BF0AB
:10CA2000100F02D01023C9F808301BF0400F02D0BD
:10CA30004023C9F808301BF0020F02D00223C9F8C6
:10CA400008301BF0800F2FD0DFF860A1D7E9133238
:10CA50009B1A3A6C9342A8BF1346DA1C48BF9A1D32
:10CA600092100292DAF8E02802F5805102F5106E79
:10CA7000009201EB0631039171018E44DEF818102B
:10CA8000029A89B2914203D9D7E9131291424AD846
:10CA9000002B09DC009B012203F50060B240D3F8B3
:10CAA000343823EA0203436301364FEA58081C373F
:10CAB00009F12009FFF7E6BBDAF81830B3FBF1F211
:10CAC00001FB12327AB999420DD8DAF8F821934273
:10CAD00009D2334632463146DAF830024FF0D6FA00
:10CAE000CAF8F8617AE7DAF81432DB682BB19AF801
:10CAF000FC21032A01D1504698470523CAF8F43196
:10CB000000231A4619466CE7DAF814325B69002BE9
:10CB10003FF472AF9AF8FC21032A7FF46DAFF1B2B3
:10CB20005046984768E78A1A3B6C9AF8F018934287
:10CB3000D7F844B0A8BF1346DA1C48BF9A1D92101C
:10CB4000029231B10BEB03017964396D19443965F7
:10CB500094E71FFA83FC0CF1030C4FEAAC0C8C45F4
:10CB6000F0D05BF821000131039A1060F7E7D3F8A9
:10CB7000DC3C93F8FC2183F8FD21042283F8FC219E
:10CB8000FFF7CDBB98600132C3F808022033FFF7EE
:10CB9000DDBB7B6943F02B037B613B6943F00B03F7
:10CBA0003B61FFF7ECBB00BFCC2F012030230120FD
:10CBB0000323984A9849C5F8EC384023C5F8F4385F
:10CBC000964BD3F8C0311A448A4200F2B880F36819
:10CBD00043F47053F3600022914B4FF0400811462C
:10CBE000D3F8EC78D3F8DC6C4023003FD6F8300261
:10CBF00018BF01274FF0ACFA434600228021D6F837
:10CC00003002C6F810814FF0A3FA0123C6F8208045
:10CC100086F8FC31D6F818322BB9D6F8203213B981
:10CC2000D6F828322BB1D6F81432304631795B6809
:10CC300098477B4BD3F8DC2CD3F8E0684FF40053D3
:10CC4000177473617369B2691340DB062FD5B3693A
:10CC500023F01003B361236A03F4F01203F00F0012
:10CC6000B2F5802F40F0BF8047F6F07213421AD021
:10CC70001C22C3F30A1304F5805402FB0052D2F8BD
:10CC8000E41ADA1C4FEAA20C019A944540F0A48001
:10CC90001C22194402FB0052C2F8E41AD2F8F01A1E
:10CCA0001944C2F8F01AB36943F01003B361736911
:10CCB000B26913401F070FD5594CD4F8DC0C90F81B
:10CCC000FC31032B04D1D0F81432DB6903B198474F
:10CCD000D4F8E068082373617369B2691340DC0219
:10CCE00002D54FF4801373617369B26913409802DF
:10CCF00002D54FF4001373617369B2691340590090
:10CD000002D54FF0804373617369B26913405A07CB
:10CD100012D57468630709D5D5F8DC0C012380F8B7
:10CD2000FC31D0F8143201795B6898473C4BD3F85A
:10CD3000E0385A6814435C6007B0BDE8F08F394AA8
:10CD400039491A448A4203D8F36843F4605341E7EF
:10CD5000A3F574023549A2F510528A4203D8F3684C
:10CD600043F4505336E7A3F183723149A2F5E74209
:10CD70008A4203D2F36843F440532BE72D4A2E49ED
:10CD80001A448A4203D8F36843F4305322E72B4A0B
:10CD90002B491A448A4203D2F36843F4205319E71B
:10CDA000284A29491A448A42FFF436ABA3F1B772E4
:10CDB0002649A2F558528A4203D2F36843F400533D
:10CDC00008E7234A1A44234B9A42F36834BF43F4DA
:10CDD000E05343F4C053FDE6019A276841F82270FE
:10CDE0000132019250E7B2F5402F7FF45CAF04F5B9
:10CDF0008054C3F30A132268C5F89C2C2268C5F836
:10CE0000A02C1C2202FB0052D2F8F01A0B44C2F8EC
:10CE1000F03A48E7405327FFFF340C0000000120A0
:10CE200030230120401E1BFF3F420F007F4F1200A6
:10CE300020D6130060B6E5FE5FE3160000D3CEFEF9
:10CE400040771B00C05BB3FEC09121002075380005
:10CE5000E05459FEE09C41002DE9F041474DD5F8E2
:10CE6000944223699E0709D5E368980706D56FF0B9
:10CE700002032361A369002385F8B03223695907AF
:10CE800009D5E3685A0706D56FF004032361A36947
:10CE9000002385F8B03223691B0709D5E3681F0713
:10CEA00006D56FF008032361E369002385F8B032EB
:10CEB0002369DE0609D5E368D80606D56FF01003AE
:10CEC0002361E369002385F8B0322369D9072FD5A0
:10CED000E368DA072CD56FF001032361284B9C42ED
:10CEE00026D1D5E99367BE4222D0D5F824328CBF33
:10CEF000C6F58057BF1B234AD3F814823244B9B217
:10CF0000C3F80822C3F81012B8F1000F10D10121A4
:10CF10003E44D5F83C02C3F81412BBB281214FF055
:10CF2000B5F8B6F5805F14BF33464346C5F84C32BA
:10CF300023691B0605D5E3681F0602D56FF0800341
:10CF400023612369DE0505D5E3681D0602D56FF070
:10CF5000800323612369580605D5E368590602D585
:10CF60006FF04003236123699A0605D5E3689B06A9
:10CF700002D56FF020032361BDE8F081302301204A
:10CF800000140040405401202DE9F843174D80461D
:10CF90000F46D5F82422D5F8E49CD2F814429CB967
:10CFA000134ED5F8503218F80420F2540133C3F36D
:10CFB0000B03C5F85032FBF789FA68B10134A74278
:10CFC000EFD12046BDE8F883D5F8E43CA3EB090394
:10CFD000322BE2D90024F4E7D5F8E43CA3EB0903B3
:10CFE000322BEED8012007F0F9FCE4E730230120D2
:10CFF00040540120F8B50D461446FBF763F978B1AB
:10D00000084ED6F8E47C002C0ADD21462846FFF7BE
:10D01000BBFFD6F8E43C241A0544DB1B322BF2D9C3
:10D02000F8BD00BF3023012070472DE9F04F4FF0CD
:10D0300000088FB033F0DCFBDFF8649333F0B0FB13
:10D040004746054646464446B54200F3C280642F33
:10D0500040F068814FF064086824C54F4C22C54BEE
:10D0600000215443D7F84C61DFF838B34FF0010A80
:10D07000C3F8006F3B19DFF81C93184655F079FC94
:10D08000BD4947F804B04C224162C0F808A0C0F87E
:10D090002890C0E90711002155F06BFC08F1050349
:10D0A00047F804B0C0F808A0C0F828904662C0E96C
:10D0B0000455C0E90766AF4AAD4CD2F8006F6A006C
:10D0C000B2F1805F2CDA4FF04C084FF001090021DB
:10D0D000C5F1006508FB03F74246DFF8CCB24FF01C
:10D0E000020AE31905FA09F5184655F042FCA24A6E
:10D0F00044F807B00021426280F805A0C0F808900B
:10D10000C0E90722424655F034FC44F807B080F8E5
:10D1100005A0C0F808904662C0E90455C0E907665A
:10D120004FF498729549924855F022FB904B042198
:10D130001A4601395662C2E9076602F14C02F8D17B
:10D14000A568002D42D12279002A3FD00F46884899
:10D150008C462164E163C4E91111C66C00F14C02F4
:10D16000002E40F0238102221868002840F04E81F2
:10D17000901E834B834AC2F864323F23C2F88C521C
:10D180003E25C2E99A534023C2E99F01C2F870329A
:10D19000810F8300002800F0638140F2FF155B19C6
:10D1A00041F100015B0A43EAC15303F140010B4422
:10D1B000C2F87412C2F8783203EBC003D90DC2F87A
:10D1C00060325B02C2E9A144C2E996310FB0BDE80A
:10D1D000F08F202206A9304633F0C8FA12226A499D
:10D1E00006A855F00BFC0090002840F08980A6426C
:10D1F0001DD066490C207A1CCA4600FB07176449FB
:10D200000192A6EB040B384601F098FB01214AF885
:10D210004C7B019AC9E902145E491746C9F82810E7
:10D22000D9F81C10C9E904BBC9E90811D146514B12
:10D230003446D3F8002FC9F81C20122202F138031B
:10D24000501C0DEB0302544B12F8201C13F808205D
:10D25000914258D108F10108B8F1150F55D1204479
:10D260000024202206A9A246A34633F07FFA05AA8D
:10D270004A4906A855F051FA0194CDE9024428B371
:10D28000BBF1050F07D8DFE80BF0030E12161A1ECC
:10D2900001F0A0FF824605AA404900200BF1010BD6
:10D2A00055F03BFAEBE701F095FF0190F3E701F051
:10D2B00091FF0290EFE701F08DFF0390EBE701F0A3
:10D2C00089FF0446E7E701F085FF0090BAF1000FFF
:10D2D00012D06401AAF2BC7ADDE9012343EA4212CA
:10D2E000039B44EAC324009B42EA4A2A44EA6304BB
:10D2F00044EA0A44C9F81C40642F3FF4ABAE3446FC
:10D3000006F50066A0E64FF00008202808D120347A
:10D31000A542F1DB024606A9204633F027FA002099
:10D3200002468BE7A6421CD0A6EB040A0C21174E3E
:10D3300007F1010801FB076642461549304601F036
:10D34000FDFA0122C9F80060C9E90224114A7C1DD6
:10D35000C9F82820D9F81C20C9E904AAC9E908227B
:10D360007BE617B13C1DB84677E60423A3E600BF71
:10D37000C8340120000001200068994F30300608B1
:10D380002BE2060830230120D5E1060818300120E1
:10D39000E8E10608C59F0008F6E106080CE2060869
:10D3A000F835012011E206081EE20608966807F12A
:10D3B000FF3EC2F840C07645C2F83CC0C2E911CC7D
:10D3C00005D1002F3FF402AF52F80C0C374607F19D
:10D3D000010E764508D10679002E3FF4F7AE42647F
:10D3E000106477461046B8E6BE427FF4EFAE002EDA
:10D3F0003FF4ECAED0F840E0DEF83C700137CEF8F8
:10D400003C70C2F840E0B6468264EAE71F79501EDD
:10D410009FB11A63DA6B520116BF02F6FF72012246
:10D42000120B104402465863C3E904660144986332
:10D4300001354C33891A421C96E61A631A695AB1AF
:10D4400002F6FF72120B02445F695A6337B107F6A6
:10D45000FF773F0B3844E9E70122F4E70127F9E7BA
:10D460000123A2E6F0B59E0814460D46370100EBF5
:10D470000616B04205F1100504F1100411D113F0A5
:10D48000030F3A4439444FF000030CBF00200C2036
:10D49000834202EB030701EB030506EB030423D1F0
:10D4A000F0BD844615ED045AD0ED016A10309CEDB4
:10D4B000006A55ED037A26EE056A10ED027A55ED05
:10D4C000025A66EEA76A50ED017A04ED046A27EE6F
:10D4D000257A15ED016A44ED036A67EE867A04ED5C
:10D4E000027A44ED017AC4E7D4ED007A043395ED75
:10D4F000007A67EE877AC7ED007AC9E7704790F83F
:10D500003C20034602F0FF0012B1002283F83C20C9
:10D510007047007970470079C0F340107047007978
:10D5200040097047704703685A1C026019707047C1
:10D5300003690133012B036108D1DFED117A80ED1E
:10D54000010A80ED000AC0ED027A704790ED006A92
:10D5500007EE903A70EE466AF8EEE77A86EEA77A22
:10D56000D0ED027A37EE067A30EE470A80ED017A86
:10D57000E6EE807AB0EE470AC0ED037AE1E700BF3D
:10D580000000000003685A1C0260197070474FF4D5
:10D590000063838170474FF40063838170474FF4C9
:10D5A000006383817047064A0423002110B552F8B6
:10D5B000044B844208BF42F8041C013BF7D110BD64
:10D5C0004074012001207047012070472DE9F84385
:10D5D000DFF8708116460F46D8F81020B8F81430DE
:10D5E000B8F91C40C3EB2215B8F81A905B006D43E4
:10D5F000C3EBE203B8F916202D135343B8F91820F2
:10D600005543AD1305EBE325B8F91E30A5F5FA3106
:10D61000DA17C8F82C5081FB010C03FB0CFE00FB51
:10D6200002EEA3FB0032964484FB01421B0A120364
:10D6300043EA0E6342EA145224031B194FF000041C
:10D6400042EB2E22A3FB093E02F5004209FB02EE4B
:10D650004FEAEE734FEA6E0253EA6E0E65D0B8F9E8
:10D6600024E04FEAEE790EFB0CFC00FB09CCB8F984
:10D670002090AEFB000EF444B8F922E08EFB01E1ED
:10D68000490441EADE314FEA4E4E1EEB000ED8F857
:10D690003000C0F580104CEB010114EB0E0E00F0D1
:10D6A000004C01EBC9014CEA500CC007B0EB0E0076
:10D6B0006CEB010440F63541A0FB010C01FB04C1F9
:10D6C00050F054FAB8F92A404A138446430B04FB3D
:10D6D00002FE4FEAE47943EAC14303FB09E9A4FBF4
:10D6E000034ECE44624303FB0E22A4FB03431A44C1
:10D6F000640EB8F9283044EAC2144FEAE37E2418D5
:10D7000041EB62625943A3FB0C3C0EFB0011DB0CA6
:10D71000614443EA4133E418B8F9263042EBE14270
